:020000040800F2
:1000000080080020CD010008E70E0008EB09000879
:10001000E50E000869030008F1190008000000005F
:10002000000000000000000000000000CD110008EA
:100030006B03000800000000610F0008A112000817
:10004000E7010008E7010008E7010008E7010008F0
:10005000E7010008E7010008E5030008E7010008E0
:10006000E7010008E7010008E7010008E7010008D0
:10007000E7010008E7010008E7010008E7010008C0
:10008000E7010008E7010008E7010008E7010008B0
:10009000E7010008E7010008E7010008E7010008A0
:1000A000E7010008E7010008E7010008E701000890
:1000B000F5120008DD130008E7010008E701000859
:1000C000E7010008E7010008E7010008E701000870
:1000D000E701000821180008E7010008E70100080F
:1000E000E7010008E7010008E7010008E701000850
:1000F000E7010008E7010008E7010008E701000840
:10010000E7010008E7010008E7010008E70100082F
:10011000E7010008E7010008E7010008E70100081F
:10012000E7010008E7010008E7010008E70100080F
:1001300000F002F800F03AF80AA090E8000C8244BF
:100140008344AAF10107DA4501D100F02FF8AFF29C
:10015000090EBAE80F0013F0010F18BFFB1A43F0A5
:10016000010318471C1D00003C1D0000103A24BF6D
:1001700078C878C1FAD8520724BF30C830C144BF0C
:1001800004680C607047000000230024002500264E
:10019000103A28BF78C1FBD8520728BF30C148BFEA
:1001A0000B6070471FB51FBD10B510BD00F096F86D
:1001B0001146FFF7F7FF01F075FC00F0C8F803B433
:1001C000FFF7F2FF03BC01F014FC00000948804770
:1001D00009480047FEE7FEE7FEE7FEE7FEE7FEE729
:1001E000FEE7FEE7FEE7FEE704480549054A064B41
:1001F00070470000A51200083101000880020020AD
:100200008008002080040020800400207047000047
:100210000FB4044910B503AA029800F031F810BCDD
:100220005DF814FB2C0000204FF0000200B51346CF
:1002300094469646203922BFA0E80C50A0E80C5006
:10024000B1F12001BFF4F7AF090728BFA0E80C50B7
:1002500048BF0CC05DF804EB890028BF40F8042BB0
:1002600008BF704748BF20F8022B11F0804F18BF1D
:1002700000F8012B704770477047704770470000C7
:10028000074B70B50D467B4400F011F80446284634
:1002900000F020F810B14FF0FF3070BD204670BD67
:1002A000D717000001694A1C02610878704700B541
:1002B0008FB0CDE901310021059105497944CDE99F
:1002C00003101146684600F02EF80FB000BD000084
:1002D000E5FFFFFF007B00F080007047754600F0EF
:1002E0003FF8AE4605006946534620F007008546B4
:1002F00018B020B5FFF778FFBDE820404FF00006AA
:100300004FF000074FF000084FF0000B21F00701FD
:10031000AC46ACE8C009ACE8C009ACE8C009ACE840
:10032000C0098D4670472DE9F04106460024D6E904
:100330000170F5688046304603E04146B847641CCA
:100340003046A8470028F8D12046BDE8F08110B516
:100350000446AFF300802046BDE81040FFF72FBFF2
:100360000048704720020020FEE77047F0B585B0D6
:1003700014461D460A4B1A88121A92B25B885B1A01
:100380009BB2084F4FF0180C00263F88CDE9005C67
:10039000CDE90376029400F01CFA05B0F0BD000030
:1003A0001002002046000020F0B585B014461D461E
:1003B0000A4B1A88121A92B25B885B1A9BB2084FDA
:1003C0004FF0200C00263F88CDE9005CCDE9037694
:1003D000029400F0FEF905B0F0BD0000100200200C
:1003E0004600002070B5142001F020FB164D0121BD
:1003F000284600F0EFFA154CEE0408B9607828B1F1
:100400000121284600F0E6FA40B117E0012130460C
:1004100001F0F7F86078401C60700FE06078012808
:100420000CD10B4D2888032808D20021304601F05A
:10043000E8F800202880607002202070BDE870403D
:10044000012000F02FB80000000801402400002027
:10045000220000203EB500F0C9FA0121084600F054
:100460009DFD0021084600F01FFA012401940020A0
:100470008DF808000C208DF809008DF80A4001A8BD
:1004800000F016F806208DF8000002208DF801001B
:1004900003208DF802008DF80340684600F024FD2B
:1004A0003EBD00000149086070470000140401408F
:1004B00030B51B4A83790168002B2AD013688B431F
:1004C0001360111D0B680468A3430B60017911448C
:1004D0000B68046823430B60114C083421680368DF
:1004E00099432160231D19680568A9431960417962
:1004F000102905D011440A68006802430A6030BD23
:10050000216802681143216019680068014319607D
:1005100030BD0079104402688A43026030BD00009B
:10052000000401402DE9F04105460C461646DFF86F
:1005300058804FF480573946404600F054FA052061
:1005400000F0A6F9032000F0E3FDC4F3074000F03B
:10055000DFFDC4F3072000F0DBFDE0B200F0D8FDC2
:10056000002405E0FF2000F0D3FD2855641CA4B250
:10057000B442F7D33946404600F033FABDE8F041C3
:10058000052000F085B90000000C014030B404469D
:1005900010460D461A46217820281DD009DC0C286B
:1005A00012D0102814D018281ED1104801FB0201C7
:1005B00006E0302814D0402816D10D4801FB020176
:1005C000284630BCFFF7AEBF514301F50021F7E7E5
:1005D000084801FB0201F3E7074801FB0201EFE7CE
:1005E000064801FB0201EBE730BC7047001208002F
:1005F00000920800000808000026080000480800D3
:1006000030B4054608462C786978812C0AD34029F5
:1006100008D3FF2906D0FF2C04D07F290DD2403902
:10062000CDB20CE00021002203E000F8012B491CB0
:1006300089B29942F9D330BC70474139CDB2813C7F
:10064000E1B2C1EB411404EB811105EB41015943C7
:100650000C2A0BD0102A0CD0182A0DD0202AEAD14F
:1006600001F5601130BC1A46FFF75CBF044A114423
:10067000F8E7044A1144F5E701F5ED11F2E700004F
:100680000014090000DD11002DE9F04FC1B08246D1
:100690000D4616461C46A946600701D0012000E021
:1006A000002000EBD40B60080BFB00FB0C2C09D0E6
:1006B000102C07D0182C05D0202C03D0302C01D0C2
:1006C000402C33D15B46224601A93046FFF75EFF3E
:1006D0004FF0000828E001A810F80870002638063E
:1006E00005D5294650464A9A00F0F8F906E04C989C
:1006F00020B9294650464B9A00F0F0F97806070ECB
:100700006D1CADB2A5EB0900A04205D14D460AF122
:10071000010A1FFA8AFA03E0761CB6B2082EDED36D
:1007200008F101081FFA88F8D845D4D341B0BDE8D4
:10073000F08F2DE9F04FA1B082460C4615461F46BA
:10074000A146780701D0012000E0002000EBD70B84
:100750000BFB07FB0C2F05D0102F03D0182F01D057
:10076000202F33D15B463A4601A92846FFF748FFC0
:100770004FF0000828E001A810F8086000253006B6
:1007800005D5214650462A9A00F0A8F906E02C9893
:1007900020B9214650462B9A00F0A0F97006060EAB
:1007A000641CA4B2A4EB0900B84205D14C460AF17E
:1007B000010A1FFA8AFA03E06D1CEDB2082DDED3A0
:1007C00008F1010808F0FF08D845D4D321B0BDE8EE
:1007D000F08F2DE9FF4F83B00446DDE910750E461A
:1007E0009346A046B2464FF0000920E0B9F1000F51
:1007F00023D04FF0000908EB0B00401BA04202DAA7
:10080000701986B2444606985044401BB04211DB32
:10081000DDE912121498CDE9001202902B463A46F7
:1008200031462046FFF785FFBF1C601984B2387837
:100830000028DBD107B0BDE8F08F802802D94FF047
:100840000109F4E708EB0B01A1EB5501A14202DA23
:1008500071198EB2444606995144491BB142E9DBF5
:100860000D2810D0DDE912121498CDE90012029083
:100870002B463A4631462046FFF706FF7F1C04EB25
:10088000550084B2D3E7701986B244467F1CF5E761
:10089000002206E00021491CC9B26429FBD3521C86
:1008A000D2B28242F6D3704710B58A07120F0F23D7
:1008B000934021F00304054921448C689C438C60DB
:1008C0008B68904003438B6010BD00000000014026
:1008D0002DE9F0410022CC7804F00F03E40601D5A5
:1008E0008C7823430C784FF00F0714F0FF0F4FF074
:1008F000010C1CD005680CFA02F40E882640A642B2
:1009000011D1960007FA06F825EA080503FA06F859
:1009100048EA0505CE78282E02D0482E02D002E003
:10092000446100E00461521C082AE4D305600A888F
:10093000FF2A1ED94568002202F108060CFA06F4C7
:100940000E882640A64210D1960007FA06F825EA3E
:10095000080503FA06F848EA0505CE78282E00D1E6
:100960004461CE78482E00D10461521C082AE3D39A
:100970004560BDE8F0810000F0B5154C002801DAB3
:10098000E36900E06368C0F30346420D120185B2DB
:10099000C0F301579540032F07D0C2020CD50322A4
:1009A000B240934343F0706209E023F070626368E1
:1009B00023F07063636002E0AB4343F0706201B107
:1009C0002A43002801DAE261F0BD6260F0BD000058
:1009D000000001400246002092680A4200D0012037
:1009E00070474161704701617047FEE708B501211A
:1009F000042000F0D3FA0120ADF8000048208DF863
:100A0000030069460148FFF763FF08BD0008014085
:100A10002DE9F041074600240C4E0021084673885A
:100A2000328800F0B3F935887088454300210846C4
:100A300000F098F900F02AFA03E0384600F0D4F903
:100A4000641CAC42F9D3BDE8F08100001002002024
:100A50002DE9F0410026F0222C232A242B251E49C3
:100A6000002818D001281ED00127022823D00328EF
:100A700029D08E710A804A800B814C818D8100249F
:100A80004B880A880021084600F080F92046BDE81E
:100A9000F04100F055B98E710A804A800B814C817B
:100AA0008D810024ECE78E710A804A800B814C8195
:100AB0008D810124E4E78F710A804A800B814C818B
:100AC0008D810224DCE78F710A804A800B814C8182
:100AD0008D810324D4E70000100200202DE9F041AD
:100AE00007460E4615460A4C608900F0B5F93846AF
:100AF00000F07AF9A08900F0AFF9304600F074F9FF
:100B0000208900F0A9F92846BDE8F04100F06CB951
:100B10001002002038B5002000900121182000F0BC
:100B20003DFA4FF48050ADF8000003258DF80250D7
:100B300010248DF8034069460B48FFF7C9FEC0201A
:100B4000ADF800008DF802508DF80340074C69465F
:100B50002046FFF7BDFE00F085FA00F009F880217D
:100B60002046FFF740FF38BD000C01400010014057
:100B700070B5094D4FF4804421462846FFF731FFF8
:100B8000322000F053FF21462846FFF72CFFBDE836
:100B900070401E2000F04ABF000C014010B5FFF766
:100BA000B9FF00F017F9322000F040FF362000F0C6
:100BB00053F9002000F036F93A2000F04DF90520F5
:100BC00000F030F9B22000F047F90C2000F02AF9CB
:100BD0000C2000F027F9002000F024F9332000F069
:100BE00021F9332000F01EF9B72000F035F9352047
:100BF00000F018F9BB2000F02FF9192000F012F9CD
:100C0000C02000F029F92C2000F00CF9C22000F0DF
:100C100023F9012000F006F9C32000F01DF912208D
:100C200000F000F9C42000F017F9202000F0FAF8D5
:100C3000C62000F011F90F2000F0F4F8D02000F0E9
:100C40000BF9A42000F0EEF8A12000F0EBF8E02072
:100C500000F002F9D02000F0E5F8042000F0E2F8FE
:100C60000D2000F0DFF8112000F0DCF8132000F078
:100C7000D9F82B2000F0D6F83F2000F0D3F854200C
:100C800000F0D0F84C2000F0CDF8182000F0CAF8A1
:100C90000D2000F0C7F80B2000F0C4F81F2000F072
:100CA000C1F8232000F0BEF8E12000F0D5F8D020F4
:100CB00000F0B8F8042000F0B5F80C2000F0B2F80D
:100CC000112000F0AFF8132000F0ACF82C2000F059
:100CD000A9F83F2000F0A6F8442000F0A3F8512026
:100CE00000F0A0F82F2000F09DF81F2000F09AF8E7
:100CF0001F2000F097F8202000F094F8232000F047
:100D000091F8212000F0A8F8112000F0A5F8782033
:100D100000F08CFE292000F09FF8C82000F086FE2D
:100D20000020FFF795FE80210448FFF75CFEBDE838
:100D300010404FF6FF70FFF76BBE0000001001403F
:100D4000002100280BD0012804D0022804D0032859
:100D500005D103E0602102E0C02100E0A02136209F
:100D600000F09AB870B506460D46074C608900F051
:100D700073F8304600F038F8A08900F06DF8284686
:100D8000BDE8704000F030B8100200202DE9F041BD
:100D900005460C46A818401E86B2E018401E87B2D1
:100DA000DFF82C80B8F80A0000F056F8284600F06A
:100DB0001BF8304600F018F8B8F80C0000F04CF8BA
:100DC000204600F011F83846BDE8F04100F00CB8BC
:100DD0001002002010B5012000F03EF8BDE81040E0
:100DE000322000F023BE000070B504460B4E4FF4D5
:100DF000805529463046FFF7F4FD40210848FFF7AB
:100E0000F2FD200A00F084F9E0B200F081F92946F1
:100E10003046BDE87040FFF7E6BD0000000C014021
:100E20000010014070B50646094D4FF4805421462C
:100E30002846FFF7D6FD40210648FFF7D4FD30468F
:100E400000F066F921462846BDE87040FFF7CBBDAB
:100E5000000C01400010014070B50446094E4FF4EB
:100E6000805529463046FFF7BCFD40210648FFF774
:100E7000B8FDE0B200F04CF929463046BDE87040BC
:100E8000FFF7B1BD000C014000100140014800898E
:100E9000FFF7E2BF1002002010B50C46FFF7DCFFA1
:100EA000E0B2BDE81040FFF7BDBF000038B501213A
:100EB000042000F073F84FF48074ADF80040102067
:100EC0008DF8030003208DF80200054D6946284681
:100ED000FFF7FEFC21462846FFF785FD38BD0000E0
:100EE00000080140FEE7704770B50F23C278012665
:100EF0000178002A1ED0144A126802F4E062C2F59A
:100F0000E062120AC2F10404D3404578A540827819
:100F10001A402A43120101F1E02181F800240078EF
:100F200000F01F018E404009800000F1E020C0F871
:100F3000006170BD01F01F0086404809800000F18B
:100F4000E020C0F8806170BD0CED00E0024908436C
:100F500002490860704700000000FA050CED00E04F
:100F600070470000054A002903D0D1690143D161CF
:100F70007047D1698143D161704700000010024081
:100F8000054A002903D011690143116170471169B5
:100F9000814311617047000000100240054A00299A
:100FA00003D09169014391617047916981439161D7
:100FB000704700000010024010B5264A516801F049
:100FC0000C01254B002927D0042927D0082927D038
:100FD0000360516801F0F0010909204B5C5C016875
:100FE000E1404160546804F4E064240A1C5D21FA85
:100FF00004F48460546804F46054E40A1B5DD9402E
:10100000C160526802F44042920B144B1B1F9A5C61
:10101000B1FBF2F1016110BD0360DAE70360D8E7CC
:10102000516801F47011536803F48033022404EB17
:10103000914133B153689B0307D5094B5943016074
:10104000C7E7074B59430160C3E7034B59430160AE
:10105000BFE700000010024000127A0034000020B8
:1010600000093D0030B587B000240694142101A882
:10107000FFF7DAF801211820FFF790FF012109207E
:10108000FFF78CFF4FF46040ADF8180003208DF897
:101090001A0018208DF81B0006A91B48FFF718FC42
:1010A00001218D032846FFF75DFF01212846FFF748
:1010B00067FF00212846FFF763FFADF804404FF4B7
:1010C0008270ADF80600ADF808400220ADF80A00C5
:1010D0000120ADF80C004002ADF80E00ADF8104054
:1010E000ADF812400720ADF81400084C01A92046C5
:1010F00000F03FF80121204600F024F8FF2000F026
:1011000007F807B030BD0000000C01400038004077
:1011100070B505460A4C0221204600F01FF8002851
:10112000F9D02946204600F022F80121204600F09F
:1011300015F80028F9D0204600F017F8C0B270BDAD
:1011400000380040002904D0018841F040010180AE
:101150007047018821F0400101807047024600205D
:1011600012890A4200D0012070478089704781812E
:10117000704730B5028802F441530A884C88CD8804
:1011800022438C882C4322430C8922434C892243DE
:101190008C892243CC8922431A430280828B22F419
:1011A00000628283098A018230BD10B504460023A3
:1011B00007E0204600F008F821F81300A41C5B1C8F
:1011C0009BB29342F5D310BD00887047704700F082
:1011D00001B800000CB50022019200922748016876
:1011E00041F4803101604FF4A063016801F40031E3
:1011F00000910199491C0191009911B901999942F5
:10120000F3D10168890302D50121009100E0009229
:101210000099012930D11A490A6842F010020A6087
:101220000A6822F003020A600A6842F002020A60B9
:101230004168416041684160416841F480614160BA
:10124000416821F47C114160416841F4E81141603A
:10125000016841F08071016001688901FCD5416835
:1012600021F003014160416841F0020141604168A1
:10127000C1F381010229FAD10CBD00000010024027
:10128000002002404FF0E021042804D0086920F03B
:10129000040008617047086940F004000861704765
:1012A0007047000010B50F48016841F0010101606E
:1012B00041680D4A1140416001680C4A11400160CB
:1012C000016821F480210160416821F4FE01416040
:1012D0004FF41F018160FFF77AFF05494FF000606E
:1012E000086010BD001002400000FFF8FFFFF6FE8E
:1012F00008ED00E02DE9F0474FF08048012140461D
:1013000000F08BF900282DD00121404600F076F93D
:10131000154C6088401C60806088DFF85090002584
:10132000134F144E03280CD301214846FFF752FBFC
:10133000012806D138700021404600F062F965802E
:10134000357060880A280DD101214846FFF742FB1D
:10135000002807D1032038700021404600F051F9E1
:1013600065803570BDE8F08720000020000801404E
:10137000240000202500002010B58AB001A8FFF746
:101380001BFE01210846FFF7EDFD40F29F50ADF82E
:101390001C0041F28730ADF820000020ADF822009B
:1013A000ADF81E004FF0804407A9204600F0EAF98E
:1013B00001221146204600F03CF91C208DF818004F
:1013C00002208DF819008DF81A0001208DF81B00FD
:1013D00006A8FFF789FD0AB010BD000070B5344CB7
:1013E0000121204600F019F9002860D00121204693
:1013F00000F004F92F480168C94301602E4D287898
:10140000401CC1B229702D4C2D4E012914D02D48FD
:101410000278501C81421FD10021204600F0AEF915
:101420000021204600F0A6F9BDE87040002226A366
:10143000D8211046FEF79ABF0021204600F09EF901
:101440003188204600F096F9BDE87040002221A3C3
:10145000D8211046FEF78ABF901C81420FD100218F
:10146000204600F087F93188204600F087F9BDE872
:10147000704000221AA3D8211046FEF777BF1B4800
:1014800000781044801C884211D10021204600F0D1
:1014900071F90021204600F071F900202870BDE8A4
:1014A0007040002212A3D8211046FEF75FBF70BD26
:1014B00000040040A001214220000020000C004058
:1014C0000400002001000020D5FDD7AABDE1CAF824
:1014D00000000000D5FDD7AABFAACABC00000000CA
:1014E000B7B4D7AABFAACABC0000000002000020FF
:1014F000B7B4D7AABDE1CAF80000000010B58AB0A1
:1015000001A8FFF759FD01210220FFF72BFD40F252
:101510009F50ADF81C004CF24F30ADF82000002079
:10152000ADF82200ADF81E000E4C07A9204600F0D1
:1015300029F90121204600F061F8012211462046D8
:1015400000F077F81D208DF8180003208DF81900A1
:101550008DF81A0001208DF81B0006A8FFF7C4FCC7
:101560000AB010BD0004004030B589B004460D46F5
:1015700001210820FFF7F6FC01210520FFF70EFDF1
:101580000622ADF8202018228DF8232003228DF8A2
:10159000222008A91748FFF79BF9ADF81840ADF8CD
:1015A00014500024ADF81A40ADF81640124D05A9AC
:1015B000284600F0E7F87021ADF804100121ADF8DD
:1015C0000610ADF80C4001A9284600F03DF801A92D
:1015D000284600F087F80821284600F079F808210D
:1015E000284600F0C1F80121284600F00AF809B0A9
:1015F00030BD000000080140000C0040C9430182DA
:101600007047002904D0018841F001010180704732
:10161000018821F001010180704702460020138AF1
:101620000B4092890A40002B02D0002A00D00120F2
:101630007047002A03D082890A43828170478289D9
:101640008A4382817047000070B5028C22F010023C
:101650000284028C8388048B24F4E04424F44076D2
:101660000D884FF6FF7404EA0525354322F0200269
:101670000E8904EA061616434A8804EA0212324327
:10168000114EB04202D0114EB04217D122F080026A
:101690004E8904EA0616164326F040068A8804EAB4
:1016A0000212324323F4806323F400638E8904EA38
:1016B00086061E43CB8904EA830333438380058374
:1016C000C9880187028470BD002C014000340140AC
:1016D000028B22F400624FF6FF7303EA01211143EB
:1016E0000183704770B5028C22F480720284028CF0
:1016F0008388848B24F0700424F003040D88254330
:1017000022F400720E894FF6FF7404EA062616438F
:101710004A8804EA02223243114EB04202D0114EEE
:10172000B04217D122F400664A8904EA0222324309
:1017300022F480668A8804EA0222324323F480532A
:1017400023F400538E8904EA06161E43CB8904EA6B
:101750000313334383808583C9888187028470BDE6
:10176000002C014000340140828B22F008020A4321
:1017700082837047C1F5E16101877047C1F5E1617E
:101780008187704730B502881B4C1C4DA0420DD09C
:10179000A8420BD0B0F1804F08D0194B984205D029
:1017A000184B984202D0184B984203D122F0700394
:1017B0004A881A43154B984206D0154B984203D0DD
:1017C00022F44073CA881A4302808A8882850A8874
:1017D0000285A0420AD0A84208D00E4A904205D005
:1017E0000D4A904202D00D4A904201D1097A0186F9
:1017F0000121818230BD0000002C014000340140F5
:101800000004004000080040000C004000100040B0
:1018100000140040004001400044014000480140E5
:1018200070B5164C40F22551204600F040F80028D3
:101830000ED0204600F0D4F8C1B2114A108803043B
:1018400006D444044FF0000307D50A2901D01380C1
:1018500070BD40F40040108070BD0D290AD0094DC4
:10186000C0F30D042955401C80B21080C728F3D95D
:10187000138070BD40F48040108070BD003801407E
:101880002A00002047010020002904D0818941F46A
:10189000005181817047818921F400518181704715
:1018A0000246002012880A4200D00120704770B51D
:1018B000002440F66A12C1F3421301F01F0501260D
:1018C00006FA05F2012B0CD0022B0DD0838A1340AF
:1018D000090A8E40008830400BB100B10124204637
:1018E00070BD83891340F3E7038A1340F0E710B516
:1018F00040F66A13C1F3421301F01F040121A14015
:10190000012B07D0022B07D014303AB102680A43EA
:10191000026010BD0C30F8E71030F6E702688A4329
:10192000026010BD30B585B004460D46208A4CF6E5
:10193000FF710840E98801432182A0894EF6F31126
:101940000840A9882A8911436A8902431143A18169
:10195000A08A4FF6FF410840A9890143A182684649
:10196000FFF72AFB1D48844201D1039800E002984A
:10197000A189090408D500EBC00101EB001029681A
:101980004900B0FBF1F007E000EBC00101EB0010F3
:1019900029688900B0FBF1F06422B0FBF2F1090183
:1019A0000B096FF018056B4300EB8300A3891D043E
:1019B0004FF0320307D503EBC000B0FBF2F000F0AC
:1019C0000700084306E003EB0010B0FBF2F000F064
:1019D0000F000843208105B030BD000000380140F1
:1019E0008088C0F308007047C1F308018180704708
:1019F000FEE7704710B56FF00400FFF743FC08489E
:101A000008490068B0FBF1F00749088000EB40028C
:101A1000C2EBC0104FF6FF7202EAC000488010BD52
:101A20000C00002000127A00260000200B49498893
:101A300048434FF0E021486100238B61086940F082
:101A4000010008610869C20701D0C003FAD508691E
:101A500020F0010008618B61704700002600002023
:101A600004490A885206FCD5024AC1B2121D1180EF
:101A7000704700000038014010B50A2391FBF3F2D3
:101A80003032D2B2027091FBF3F403FB1411303107
:101A9000C9B2417000238370002A01D101704370E4
:101AA00010BD000000F0FEF8DFF840B1DFF840A103
:101AB000504F514EDFF8449100259AF8000000285D
:101AC00074D0012804D0022859D0032863D06DE0D7
:101AD0003078401CC0B23070042800D135703078A6
:101AE00001282AD0022836D003283ED0444C0021B9
:101AF0002046FFF743FE00212046FFF73BFE002172
:101B00005846FFF77EFD3F4805703FA3002288211D
:101B10002420FEF749FC00223EA3D8211046FEF700
:101B200025FC3FA0FEF774FB002243A3114610469C
:101B3000FEF71CFC8AF8005038E04FF4AF60B0802C
:101B40003EA3002288212420FEF72EFC01215846C6
:101B5000FFF757FDE5E740F20E60B0803AA30022A0
:101B600088212420FEF720FCDBE740F2A460B0804F
:101B700038A3002288212420FEF716FCD1E738A0E4
:101B8000FEF746FB00223CA311461046FEF7EEFB93
:101B90008AF800500AE039A0FEF73AFB00223DA384
:101BA00011461046FEF7E2FB8AF80050B9F8000033
:101BB000010482D5C0F30D00B0600024DFF8D880A6
:101BC0000BE040213846FFF76BFE0128F9D118F8E9
:101BD00004103846FFF708FF641CB0688442F0D355
:101BE0002EA0FEF715FBA9F8005066E700040040A0
:101BF0002400002000380140000000202A000020BE
:101C0000000C004020000020D7AACBD93A20CDA359
:101C1000D6B9000020202020202020200000000035
:101C20006B65795374616C203D2053696E676C65F8
:101C3000436C696B0D0A000053000000D7AACBD992
:101C40003A20B5CDCBD90000D7AACBD93A20D6D0EF
:101C5000CBD90000D7AACBD93A20B8DFCBD9000026
:101C60006B65795374616C203D20446F75626C65BF
:101C7000436C69636B0D0A00440000006B65795387
:101C800074616C203D204C6F6E67436C69636B0D13
:101C90000A0000004C000000470100200D0A0D0A58
:101CA0000000000010B5FFF7A5FE4FF4A060FFF79D
:101CB0004DF94FF4E13000F08FF8FFF7F7F8FEF739
:101CC000C9FBFEF76BFF032140F20770FFF74CFCE6
:101CD000FFF752FBFFF712FC012228492848FFF7C3
:101CE00064FA264926480122491C001DFFF75DFAC7
:101CF00024A34FF4784200213820FEF755FB24A39B
:101D0000002248212420FEF74FFB23A300223B2181
:101D10008E20FEF72BFB194C2148641E6178FFF7DB
:101D2000ABFE1F4B00223B21BE20FEF71FFB1DA375
:101D300000225D218E20FEF719FBA1781848FFF7DD
:101D40009BFE174B00225D21BE20FEF70FFB17A361
:101D5000002288212420FEF727FB17A0FEF758FA5F
:101D600018A0FEF755FA1B4C00212046FFF702FD94
:101D70002046BDE810400021FFF700BD0100002013
:101D800000000308B5E7BBFABFD8D6C600000000C4
:101D9000D5FDB7B4D7AA0000D5FD3A2020207300A6
:101DA00048000020B7B43A2020207300D7AACBD92E
:101DB0003A20CDA3D6B9000009B5E7BBFABFD8D603
:101DC000C60D0A00090932303230313232350D0A7F
:101DD00000000000000C004070B586B005460121EF
:101DE00044F20900FFF7DAF801210420FEF7C4FDF0
:101DF0004020ADF8140003248DF8164018218DF80A
:101E000017101D4E05A93046FEF762FD8021ADF882
:101E1000141004218DF8171005A93046FEF758FD5F
:101E200025208DF800008DF801408DF8024001203A
:101E30008DF803006846FFF757F801950020ADF8CC
:101E40000800ADF80A00ADF80C00ADF810000C2049
:101E5000ADF80E00094C01A92046FFF763FD0122F1
:101E600040F225512046FFF742FD01212046FFF7B1
:101E70000BFD06B070BD0000000C014000380140B1
:101E8000A01E000800000020480000006C010008AF
:101E9000E81E0008480000203808000088010008FB
:101EA00000000000000000000000000000A24A0442
:101EB00000000000000000000102030406070809FA
:101EC0000000000000000000000000000000000012
:101ED00002040608000000000102030401020304DA
:081EE000060708090000FFFFDE
:0400000508000131BD
:00000001FF
